:020000040000fa
:080000000002040000000000f2
:020000040000fa
:04000800e002000012
:020000040000fa
:04000c00e00200000e
:020000040000fa
:04001000e00200000a
:020000040000fa
:04001400e002000006
:020000040000fa
:04001800e002000002
:020000040000fa
:04001c00e0020000fe
:020000040000fa
:04002000e0020000fa
:020000040000fa
:04002400e0020000f6
:020000040000fa
:04002800e0020000f2
:020000040000fa
:04002c00e0020000ee
:020000040000fa
:04003000e0020000ea
:020000040000fa
:04003400e0020000e6
:020000040000fa
:04003800e0020000e2
:020000040000fa
:04003c00e0020000de
:020000040000fa
:04004000e0020000da
:020000040000fa
:04004400e0020000d6
:020000040000fa
:04004800e0020000d2
:020000040000fa
:04004c00e0020000ce
:020000040000fa
:04005000e0020000ca
:020000040000fa
:04005400e0020000c6
:020000040000fa
:04005800e0020000c2
:020000040000fa
:04005c00e0020000be
:020000040000fa
:04006000e0020000ba
:020000040000fa
:04006400e0020000b6
:020000040000fa
:04006800e0020000b2
:020000040000fa
:04006c00e0020000ae
:020000040000fa
:04007000e0020000aa
:020000040000fa
:04007400e0020000a6
:020000040000fa
:04007800e0020000a2
:020000040000fa
:04007c00e00200009e
:020000040000fa
:04008000e00200009a
:020000040000fa
:04008400e002000096
:020000040000fa
:04008800e002000092
:020000040000fa
:04008c00e00200008e
:020000040000fa
:04009000e00200008a
:020000040000fa
:04009400e002000086
:020000040000fa
:04009800e002000082
:020000040000fa
:04009c00e00200007e
:020000040000fa
:0400a000e00200007a
:020000040000fa
:0400a400e002000076
:020000040000fa
:0400a800e002000072
:020000040000fa
:0400ac00e00200006e
:020000040000fa
:0400b000e00200006a
:020000040000fa
:0400b400e002000066
:020000040000fa
:0400b800e002000062
:020000040000fa
:0400bc00e00200005e
:020000040000fa
:0400c000e00200005a
:020000040000fa
:0400c400e002000056
:020000040000fa
:0400c800e002000052
:020000040000fa
:0400cc00e00200004e
:020000040000fa
:0400d000e00200004a
:020000040000fa
:0400d400e002000046
:020000040000fa
:0400d800e002000042
:020000040000fa
:0400dc00e00200003e
:020000040000fa
:0400e000e00200003a
:020000040000fa
:0400e400e002000036
:020000040000fa
:0400e800e002000032
:020000040000fa
:0400ec00e00200002e
:020000040000fa
:0400f000e00200002a
:020000040000fa
:0400f400e002000026
:020000040000fa
:0400f800e002000022
:020000040000fa
:0400fc00e00200001e
:020000040000fa
:04010000e002000019
:020000040000fa
:04010400e002000015
:020000040000fa
:04010800e002000011
:020000040000fa
:04010c00e00200000d
:020000040000fa
:04011000e002000009
:020000040000fa
:04011400e002000005
:020000040000fa
:04011800e002000001
:020000040000fa
:04011c00e0020000fd
:020000040000fa
:04012000e0020000f9
:020000040000fa
:04012400e0020000f5
:020000040000fa
:04012800e0020000f1
:020000040000fa
:04012c00e0020000ed
:020000040000fa
:04013000e0020000e9
:020000040000fa
:04013400e0020000e5
:020000040000fa
:04013800e0020000e1
:020000040000fa
:04013c00e0020000dd
:020000040000fa
:04014000e0020000d9
:020000040000fa
:04014400e0020000d5
:020000040000fa
:04014800e0020000d1
:020000040000fa
:04014c00e0020000cd
:020000040000fa
:04015000e0020000c9
:020000040000fa
:04015400e0020000c5
:020000040000fa
:04015800e0020000c1
:020000040000fa
:04015c00e0020000bd
:020000040000fa
:04016000e0020000b9
:020000040000fa
:04016400e0020000b5
:020000040000fa
:04016800e0020000b1
:020000040000fa
:04016c00e0020000ad
:020000040000fa
:04017000e0020000a9
:020000040000fa
:04017400e0020000a5
:020000040000fa
:04017800e0020000a1
:020000040000fa
:04017c00e00200009d
:020000040000fa
:04018000e002000099
:020000040000fa
:04018400e002000095
:020000040000fa
:04018800e002000091
:020000040000fa
:04018c00e00200008d
:020000040000fa
:04019000e002000089
:020000040000fa
:04019400e002000085
:020000040000fa
:04019800e002000081
:020000040000fa
:04019c00e00200007d
:020000040000fa
:0401a000e002000079
:020000040000fa
:0401a400e002000075
:020000040000fa
:0401a800e002000071
:020000040000fa
:0401ac00e00200006d
:020000040000fa
:0401b000e002000069
:020000040000fa
:0401b400e002000065
:020000040000fa
:0401b800e002000061
:020000040000fa
:0401bc00e00200005d
:020000040000fa
:0401c000e002000059
:020000040000fa
:0401c400e002000055
:020000040000fa
:0401c800e002000051
:020000040000fa
:0401cc00e00200004d
:020000040000fa
:0401d000e002000049
:020000040000fa
:0401d400e002000045
:020000040000fa
:0401d800e002000041
:020000040000fa
:0401dc00e00200003d
:020000040000fa
:0401e000e002000039
:020000040000fa
:0401e400e002000035
:020000040000fa
:0401e800e002000031
:020000040000fa
:0401ec00e00200002d
:020000040000fa
:0401f000e002000029
:020000040000fa
:0401f400e002000025
:020000040000fa
:0401f800e002000021
:020000040000fa
:0401fc00e00200001d
:020000040000fa
:04020000e002000018
:020000040000fa
:04020400e002000014
:020000040000fa
:04020800e002000010
:020000040000fa
:04020c00e00200000c
:020000040000fa
:04021000e002000008
:020000040000fa
:04021400e002000004
:020000040000fa
:04021800e002000000
:020000040000fa
:04021c00e0020000fc
:020000040000fa
:04022000e0020000f8
:020000040000fa
:04022400e0020000f4
:020000040000fa
:04022800e0020000f0
:020000040000fa
:04022c00e0020000ec
:020000040000fa
:04023000e0020000e8
:020000040000fa
:04023400e0020000e4
:020000040000fa
:04023800e0020000e0
:020000040000fa
:04023c00e0020000dc
:020000040000fa
:04024000e0020000d8
:020000040000fa
:04024400e0020000d4
:020000040000fa
:04024800e0020000d0
:020000040000fa
:04024c00e0020000cc
:020000040000fa
:04025000e0020000c8
:020000040000fa
:04025400e0020000c4
:020000040000fa
:04025800e0020000c0
:020000040000fa
:04025c00e0020000bc
:020000040000fa
:04026000e0020000b8
:020000040000fa
:04026400e0020000b4
:020000040000fa
:04026800e0020000b0
:020000040000fa
:04026c00e0020000ac
:020000040000fa
:04027000e0020000a8
:020000040000fa
:04027400e0020000a4
:020000040000fa
:04027800e0020000a0
:020000040000fa
:04027c00e00200009c
:020000040000fa
:04028000e002000098
:020000040000fa
:100400004f0021000eff28000e01880000000000b0
:10041000000020000000e000020032000001200087
:10042000200288000c000700804c20000100200002
:100430000f000700000020000000e0000200320072
:1004400000000200000000001e0402000000000086
:100450000040da000000fe00200020000000e00064
:100460000200320010002000900188000000060009
:10047000a1028800800078000000eb001a0037001d
:10048000e280400054a0b4009101ba00e280400034
:1004900054a0b4009102ba00e280400054a0b4001d
:1004a0000002eb00472bde00f507b200a601880032
:1004b000602ce10008003a000049eb000201e8006e
:1004c000020039003420ec0002f0a0008301e900b2
:1004d000f9ff3e00040037006128e100010032000e
:1004e0000082eb000b00070011c3ba001101ba0033
:1004f0000604e00003003a000200e000e0ff3a00da
:1005000000000600f607b200a6028800820078000c
:10051000f5ff370004d0a300e20f49001c003900aa
:10052000810278003549ba000201e8000200390072
:100530003420ec0002f0a0008301e9000f0032003b
:100540002549ba000201e800020039003420ec001d
:1005500002f0a0008301e900080032000400e0007e
:100560000600320015c9ba000201e8000200390095
:100570003420ec0002f0a0008301e9008180e80053
:1005800054a0b4000300e000e2ff3a0000000600bf
:100590009102ba00055978008301e900f7ff3200a3
:1005a000c82ade00055978008301e900f3ff320014
:1005b0000400e000f1ff320011d9ba00eeff37006d
:0805c0000040da000000fe001b
:020000040000fa
:1005c8000600fa000030ef00202020000100200083
:1005d800008fbe0014eea800152ea8001e0078009b
:1005e80000407800614060000080fb00610060000e
:1005f8004800dd00a2708000f1ef2f00810061004b
:1006080001007000a0708800152ea90014eea90042
:100618001d00370014eea800152ea8001e00780053
:1006280000407800614060000080fb0061006000cd
:100638004800dd00a2708000f1ef2f00810061000a
:1006480001007000a0708800152ea90014eea90002
:100658000000eb0020079800030037002e009000f0
:100668000000e80020079800ae009000f009200084
:10067800808f5000f9ff3600222020000300200060
:100688001e0f41005e974900d0ff2f001100200087
:100698001e01be00800f5100818f5900ddff34001c
:1006a8000080fa00000006000600fa001000200092
:1006b80000808800f0ff2f0011002000008fbe008e
:1006c80014eea800152ea8001e007800004078003f
:1006d800614060000080fb00610060004800dd00b0
:1006e800a2708000f1ef2f0081006100010070000e
:1006f800a0708800152ea90014eea9001d0037006f
:1007080014eea800152ea8001e00780000407800fe
:10071800614060000080fb00610060004800dd006f
:10072800a2708000f1ef2f008100610001007000cd
:10073800a0708800152ea90014eea9000000eb0097
:1007480020079800030037002e0090000000e80002
:1007580020079800ae009000f0092000808f50001c
:10076800f9ff3600e2df2f00f3ff2f001e0f4100d4
:100778005e97490030202000010020001e01be00c5
:10078800800f5100818f5900ddff3c000080fa0086
:10079800000006000000fa00140ea800142ea9009c
:1007a8000080fa00000006000000fa00140ea900fc
:1007b800142ea8000080fa00000006000000fa00cd
:1007c800140ea900142ea9000080fa0000000600eb
:1007d8000000fa00140ea800142ea8000080fa00e9
:1007e800000006000000fa00144ea800146ea900cc
:1007f8000080fa00000006000000fa00144ea9006c
:10080800146ea8000080fa00000006000000fa003c
:10081800144ea900146ea9000080fa00000006001a
:100828000000fa00144ea800146ea8000080fa0018
:10083800000006000000fa001e2eef0000002e0047
:10084800a070880000002e00807088005cff070000
:1008580001003700000000009170800000002200b5
:10086800008060000000e000faff3a00108080007d
:10087800e30f500019003200e30f500005003e005e
:10088800e10f50000f003200e10f500010003e0051
:1008980009003700e50f500016003200e50f500040
:1008a80011003900e60f500015003200e70f500024
:1008b8001600320018003700b6ff070040ff070097
:1008c80018003700c7ff070077ff0700150037003b
:1008d800b5ff07003aff070012003700c6ff070000
:1008e80071ff07000f003700b4ff070034ff07004f
:1008f8000c003700c5ff07006bff07000900370031
:10090800b3ff07002eff070006003700c4ff0700eb
:1009180065ff0700030037000080eb0010808800a7
:1009280000000000108080000000e80010808800af
:10093800c9ff37000600fa00200798000000eb0006
:10094800000f78000a0037000000eb00100798003d
:10095800030037001e0090000000e8001007980010
:100968001e009000f30f5000faff36001e0fe8003b
:100978002e0090009e007800808f5000f2ff390012
:080988000080fa0000000600e7
:020000040000fa
:10099000001000000400000080000000d00480006f
:020000040000fa
:0409a0000000000053
:020000040000fa
:020000040005f5
:045fe000ccff0000f2
:020000040000fa
:020000040005f5
:045fe400ffff0000bb
:020000040000fa
:020000040005f5
:045fe8007fff000037
:020000040000fa
:020000040005f5
:045fec009fff000013
:020000040000fa
:020000040005f5
:045ff000ffff0000af
:020000040000fa
:020000040005f5
:045ff400ffff0000ab
:00000001FF
